{
  "contractName": "Amazon",
  "abi": [
    {
      "inputs": [],
      "payable": false,
      "stateMutability": "nonpayable",
      "type": "constructor"
    },
    {
      "anonymous": false,
      "inputs": [
        {
          "indexed": false,
          "name": "sku",
          "type": "uint256"
        }
      ],
      "name": "ForSale",
      "type": "event"
    },
    {
      "anonymous": false,
      "inputs": [
        {
          "indexed": false,
          "name": "sku",
          "type": "uint256"
        }
      ],
      "name": "Sold",
      "type": "event"
    },
    {
      "anonymous": false,
      "inputs": [
        {
          "indexed": false,
          "name": "sku",
          "type": "uint256"
        }
      ],
      "name": "Shipped",
      "type": "event"
    },
    {
      "anonymous": false,
      "inputs": [
        {
          "indexed": false,
          "name": "sku",
          "type": "uint256"
        }
      ],
      "name": "Received",
      "type": "event"
    },
    {
      "constant": false,
      "inputs": [
        {
          "name": "_name",
          "type": "string"
        },
        {
          "name": "_price",
          "type": "uint256"
        }
      ],
      "name": "addItem",
      "outputs": [],
      "payable": false,
      "stateMutability": "nonpayable",
      "type": "function"
    },
    {
      "constant": false,
      "inputs": [
        {
          "name": "sku",
          "type": "uint256"
        }
      ],
      "name": "buyItem",
      "outputs": [],
      "payable": true,
      "stateMutability": "payable",
      "type": "function"
    },
    {
      "constant": false,
      "inputs": [
        {
          "name": "sku",
          "type": "uint256"
        }
      ],
      "name": "shipItem",
      "outputs": [],
      "payable": false,
      "stateMutability": "nonpayable",
      "type": "function"
    },
    {
      "constant": false,
      "inputs": [
        {
          "name": "sku",
          "type": "uint256"
        }
      ],
      "name": "receiveItem",
      "outputs": [],
      "payable": false,
      "stateMutability": "nonpayable",
      "type": "function"
    },
    {
      "constant": true,
      "inputs": [],
      "name": "fetchLast",
      "outputs": [
        {
          "name": "name",
          "type": "string"
        },
        {
          "name": "sku",
          "type": "uint256"
        },
        {
          "name": "price",
          "type": "uint256"
        },
        {
          "name": "state",
          "type": "uint256"
        },
        {
          "name": "seller",
          "type": "address"
        },
        {
          "name": "buyer",
          "type": "address"
        }
      ],
      "payable": false,
      "stateMutability": "view",
      "type": "function"
    }
  ],
  "bytecode": "0x608060405234801561001057600080fd5b50336000806101000a81548173ffffffffffffffffffffffffffffffffffffffff021916908373ffffffffffffffffffffffffffffffffffffffff1602179055506000600181905550610b60806100686000396000f30060806040526004361061006d576000357c0100000000000000000000000000000000000000000000000000000000900463ffffffff16806362d6bbdf14610072578063a26be999146100e5578063ce9cb29e14610112578063e7fb74c71461021d578063f61c899a1461023d575b600080fd5b34801561007e57600080fd5b506100e3600480360381019080803590602001908201803590602001908080601f01602080910402602001604051908101604052809392919081815260200183838082843782019150505050505091929192908035906020019092919050505061026a565b005b3480156100f157600080fd5b5061011060048036038101908080359060200190929190505050610424565b005b34801561011e57600080fd5b50610127610552565b60405180806020018781526020018681526020018581526020018473ffffffffffffffffffffffffffffffffffffffff1673ffffffffffffffffffffffffffffffffffffffff1681526020018373ffffffffffffffffffffffffffffffffffffffff1673ffffffffffffffffffffffffffffffffffffffff168152602001828103825288818151815260200191508051906020019080838360005b838110156101dd5780820151818401526020810190506101c2565b50505050905090810190601f16801561020a5780820380516001836020036101000a031916815260200191505b5097505050505050505060405180910390f35b61023b60048036038101908080359060200190929190505050610714565b005b34801561024957600080fd5b5061026860048036038101908080359060200190929190505050610962565b005b60c0604051908101604052808381526020016001548152602001670de0b6b3a764000083028152602001600060038111156102a157fe5b81526020013373ffffffffffffffffffffffffffffffffffffffff1681526020013373ffffffffffffffffffffffffffffffffffffffff16815250600260006001548152602001908152602001600020600082015181600001908051906020019061030d929190610a8f565b50602082015181600101556040820151816002015560608201518160030160006101000a81548160ff0219169083600381111561034657fe5b021790555060808201518160030160016101000a81548173ffffffffffffffffffffffffffffffffffffffff021916908373ffffffffffffffffffffffffffffffffffffffff16021790555060a08201518160040160006101000a81548173ffffffffffffffffffffffffffffffffffffffff021916908373ffffffffffffffffffffffffffffffffffffffff16021790555090505060018054016001819055507fa96ae0fc3224ebd79eebfe54bd130cc9cb94416cddd1f2386115e00b725324686001546040518082815260200191505060405180910390a15050565b806002600082815260200190815260200160002060030160009054906101000a900460ff16600381111561045457fe5b6002600381111561046157fe5b14151561046d57600080fd5b6002600083815260200190815260200160002060040160009054906101000a900473ffffffffffffffffffffffffffffffffffffffff168073ffffffffffffffffffffffffffffffffffffffff163373ffffffffffffffffffffffffffffffffffffffff161415156104de57600080fd5b60036002600085815260200190815260200160002060030160006101000a81548160ff0219169083600381111561051157fe5b02179055507fa8142743f8f70a4c26f3691cf4ed59718381fb2f18070ec52be1f1022d855557836040518082815260200191505060405180910390a1505050565b6060600080600080600060026000600180540381526020019081526020016000206000018054600181600116156101000203166002900480601f01602080910402602001604051908101604052809291908181526020018280546001816001161561010002031660029004801561060a5780601f106105df5761010080835404028352916020019161060a565b820191906000526020600020905b8154815290600101906020018083116105ed57829003601f168201915b5050505050955060026000600180540381526020019081526020016000206001015494506002600060018054038152602001908152602001600020600201549350600260006001805403815260200190815260200160002060030160009054906101000a900460ff16600381111561067e57fe5b9250600260006001805403815260200190815260200160002060030160019054906101000a900473ffffffffffffffffffffffffffffffffffffffff169150600260006001805403815260200190815260200160002060040160009054906101000a900473ffffffffffffffffffffffffffffffffffffffff169050858585858585955095509550955095509550909192939495565b806002600082815260200190815260200160002060030160009054906101000a900460ff16600381111561074457fe5b6000600381111561075157fe5b14151561075d57600080fd5b600260008381526020019081526020016000206002015480341015151561078357600080fd5b82336002600086815260200190815260200160002060040160006101000a81548173ffffffffffffffffffffffffffffffffffffffff021916908373ffffffffffffffffffffffffffffffffffffffff16021790555060016002600086815260200190815260200160002060030160006101000a81548160ff0219169083600381111561080c57fe5b02179055506002600085815260200190815260200160002060030160019054906101000a900473ffffffffffffffffffffffffffffffffffffffff1673ffffffffffffffffffffffffffffffffffffffff166108fc60026000878152602001908152602001600020600201549081150290604051600060405180830381858888f193505050501580156108a3573d6000803e3d6000fd5b507f92f64ca637d023f354075a4be751b169c1a8a9ccb6d33cdd0cb3520543995727846040518082815260200191505060405180910390a1600060026000838152602001908152602001600020600201543403111561095c573373ffffffffffffffffffffffffffffffffffffffff166108fc600260008481526020019081526020016000206002015434039081150290604051600060405180830381858888f1935050505015801561095a573d6000803e3d6000fd5b505b50505050565b6002600082815260200190815260200160002060030160019054906101000a900473ffffffffffffffffffffffffffffffffffffffff168073ffffffffffffffffffffffffffffffffffffffff163373ffffffffffffffffffffffffffffffffffffffff161415156109d357600080fd5b816002600082815260200190815260200160002060030160009054906101000a900460ff166003811115610a0357fe5b60016003811115610a1057fe5b141515610a1c57600080fd5b600280600085815260200190815260200160002060030160006101000a81548160ff02191690836003811115610a4e57fe5b02179055507ff00b9a5725b80c54016f42114f6ed7792d22eecb116011c4afac29c57bef6c95836040518082815260200191505060405180910390a1505050565b828054600181600116156101000203166002900490600052602060002090601f016020900481019282601f10610ad057805160ff1916838001178555610afe565b82800160010185558215610afe579182015b82811115610afd578251825591602001919060010190610ae2565b5b509050610b0b9190610b0f565b5090565b610b3191905b80821115610b2d576000816000905550600101610b15565b5090565b905600a165627a7a72305820afce9e86bbe8496c139c30e7e355271e2769d164518d2664931450f26973e98a0029",
  "source": "pragma solidity ^0.4.13;\n\ncontract Amazon {\n\n  /* set owner */\n  address owner;\n\n  /* Add a variable called skuCount to track the most recent sku # */\n  uint private skuCount;\n\n  /* Add a line that creates a public mapping that maps the SKU (a number) to an Item.\n     Call this mappings items\n  */\n  mapping (uint => Item) private items;\n\n  /* Add a line that creates an enum called State. This should have 4 states\n    ForSale\n    Sold\n    Shipped\n    Received\n  */\n  enum State { ForSale, Sold, Shipped , Received }\n\n  /* Create a struct named Item.\n    Here, add a name, sku, price, state, seller, and buyer\n    We've left you to figure out what the appropriate types are,\n    if you need help you can ask around :)\n  */\n  struct Item {\n    string name;\n    uint sku;\n    uint price;\n    State state;\n    address seller;\n    address buyer;\n  }\n\n  /* Create 4 events with the same name as each possible State (see above)\n    Each event should accept one argument, the sku*/\n    event ForSale (uint sku);\n    event Sold (uint sku);\n    event Shipped (uint sku);\n    event Received (uint sku);\n\n  modifier isOwner (address _owner) { require(msg.sender == _owner); _;}\n  modifier isBuyer (address _buyer) { require(msg.sender == _buyer); _;}\n  modifier paidEnough(uint _value) { require(msg.value >= _value); _;}\n  modifier refundValue(uint sku) {\n    //refund them after pay for item (why it is before, _ checks for logic fo func)\n    _;\n    if(msg.value - items[sku].price >0){\n        msg.sender.transfer(msg.value - items[sku].price);\n    }\n  }\n\n  /* For each of the following modifiers, use what you learned about modifiers\n   to give them functionality. For example, the forSale modifier should require\n   that the item with the given sku has the state ForSale. */\n  modifier forSale (uint _sku) { require(State.ForSale == items[_sku].state); _ ;}\n  modifier sold (uint _sku) { require(State.Sold == items[_sku].state); _ ;}\n  modifier shipped (uint _sku) { require(State.Shipped == items[_sku].state); _ ;}\n  modifier received (uint _sku) { require(State.Received == items[_sku].state); _ ;}\n\n\n  constructor() public {\n    /* Here, set the owner as the person who instantiated the contract\n       and set your skuCount to 0. */\n       owner = msg.sender;\n       skuCount = 0;\n  }\n\n  function addItem(string _name, uint _price) public {\n    items[skuCount] = Item({name: _name, sku: skuCount, price: _price*1 ether, state: State.ForSale, seller: msg.sender, buyer: msg.sender});\n    skuCount = skuCount + 1;\n    emit ForSale(skuCount);\n  }\n\n  /* Add a keyword so the function can be paid. This function should transfer money\n    to the seller, set the buyer as the person who called this transaction, and set the state\n    to Sold. Be careful, this function should use 3 modifiers to check if the item is for sale,\n    if the buyer paid enough, and check the value after the function is called to make sure the buyer is\n    refunded any excess ether sent. Remember to call the event associated with this function!*/\n\n  function buyItem(uint sku) forSale(sku) paidEnough(items[sku].price) refundValue(sku) payable public{\n    items[sku].buyer = msg.sender;\n    items[sku].state = State.Sold;\n    items[sku].seller.transfer(items[sku].price);\n    emit Sold(sku);\n  }\n\n  /* Add 2 modifiers to check if the item is sold already, and that the person calling this function\n  is the seller. Change the state of the item to shipped. Remember to call the event associated with this function!*/\n  function shipItem(uint sku)\n  isOwner(items[sku].seller)\n  sold(sku) public {\n    items[sku].state = State.Shipped;\n    emit Shipped(sku);\n  }\n\n  /* Add 2 modifiers to check if the item is shipped already, and that the person calling this function\n  is the buyer. Change the state of the item to received. Remember to call the event associated with this function!*/\n  function receiveItem(uint sku) shipped(sku) isBuyer(items[sku].buyer) public {\n    items[sku].state = State.Received;\n    emit Received(sku);\n  }\n\n  /* We have this function completed so we can run tests, just ignore it :) */\n  function fetchLast() public view returns (string name, uint sku, uint price, uint state, address seller, address buyer) {\n    name = items[skuCount-1].name;\n    sku = items[skuCount-1].sku;\n    price = items[skuCount-1].price;\n    state = uint(items[skuCount-1].state);\n    seller = items[skuCount-1].seller;\n    buyer = items[skuCount-1].buyer;\n    return (name, sku, price, state, seller, buyer);\n  }\n\n}",
  "sourcePath": "/Users/shubham/Projects/Topcoder/ diligence-smart-contract-fun-challenge/Amazon/contracts/Amazon.sol",
  "compiler": {
    "name": "solc",
    "version": "0.4.24+commit.e67f0147.Emscripten.clang"
  },
  "schemaVersion": "2.0.0",
  "updatedAt": "2018-06-07T04:23:03.460Z"
}