{
  "contractName": "SimpleBank",
  "abi": [
    {
      "constant": true,
      "inputs": [],
      "name": "owner",
      "outputs": [
        {
          "name": "",
          "type": "address"
        }
      ],
      "payable": false,
      "stateMutability": "view",
      "type": "function"
    },
    {
      "inputs": [],
      "payable": true,
      "stateMutability": "payable",
      "type": "constructor"
    },
    {
      "payable": true,
      "stateMutability": "payable",
      "type": "fallback"
    },
    {
      "anonymous": false,
      "inputs": [
        {
          "indexed": false,
          "name": "accountAddress",
          "type": "address"
        },
        {
          "indexed": false,
          "name": "amount",
          "type": "uint256"
        }
      ],
      "name": "LogDepositMade",
      "type": "event"
    },
    {
      "constant": false,
      "inputs": [],
      "name": "enroll",
      "outputs": [
        {
          "name": "",
          "type": "uint256"
        }
      ],
      "payable": false,
      "stateMutability": "nonpayable",
      "type": "function"
    },
    {
      "constant": false,
      "inputs": [
        {
          "name": "amount",
          "type": "uint256"
        }
      ],
      "name": "deposit",
      "outputs": [],
      "payable": true,
      "stateMutability": "payable",
      "type": "function"
    },
    {
      "constant": false,
      "inputs": [
        {
          "name": "withdrawAmount",
          "type": "uint256"
        }
      ],
      "name": "withdraw",
      "outputs": [
        {
          "name": "remainingBal",
          "type": "uint256"
        }
      ],
      "payable": false,
      "stateMutability": "nonpayable",
      "type": "function"
    },
    {
      "constant": true,
      "inputs": [],
      "name": "balance",
      "outputs": [
        {
          "name": "",
          "type": "uint256"
        }
      ],
      "payable": false,
      "stateMutability": "view",
      "type": "function"
    }
  ],
  "bytecode": "0x608060405233600260006101000a81548173ffffffffffffffffffffffffffffffffffffffff021916908373ffffffffffffffffffffffffffffffffffffffff1602179055506105f6806100546000396000f30060806040526004361061006d576000357c0100000000000000000000000000000000000000000000000000000000900463ffffffff1680632e1a7d4d146100725780638da5cb5b146100b3578063b69ef8a81461010a578063b6b55f2514610135578063e65f2a7e14610155575b600080fd5b34801561007e57600080fd5b5061009d60048036038101908080359060200190929190505050610180565b6040518082815260200191505060405180910390f35b3480156100bf57600080fd5b506100c86102ed565b604051808273ffffffffffffffffffffffffffffffffffffffff1673ffffffffffffffffffffffffffffffffffffffff16815260200191505060405180910390f35b34801561011657600080fd5b5061011f610313565b6040518082815260200191505060405180910390f35b61015360048036038101908080359060200190929190505050610359565b005b34801561016157600080fd5b5061016a61048f565b6040518082815260200191505060405180910390f35b6000816000803373ffffffffffffffffffffffffffffffffffffffff1673ffffffffffffffffffffffffffffffffffffffff168152602001908152602001600020541015156102a757816000803373ffffffffffffffffffffffffffffffffffffffff1673ffffffffffffffffffffffffffffffffffffffff168152602001908152602001600020600082825403925050819055503373ffffffffffffffffffffffffffffffffffffffff166108fc662386f26fc1000084029081150290604051600060405180830381858888f1935050505015156102a657816000803373ffffffffffffffffffffffffffffffffffffffff1673ffffffffffffffffffffffffffffffffffffffff168152602001908152602001600020600082825401925050819055505b5b6000803373ffffffffffffffffffffffffffffffffffffffff1673ffffffffffffffffffffffffffffffffffffffff168152602001908152602001600020549050919050565b600260009054906101000a900473ffffffffffffffffffffffffffffffffffffffff1681565b60008060003373ffffffffffffffffffffffffffffffffffffffff1673ffffffffffffffffffffffffffffffffffffffff16815260200190815260200160002054905090565b806000662386f26fc100008302341015151561037457600080fd5b826000803373ffffffffffffffffffffffffffffffffffffffff1673ffffffffffffffffffffffffffffffffffffffff168152602001908152602001600020600082825401925050819055507fa8126f7572bb1fdeae5b5aa9ec126438b91f658a07873f009d041ae690f3a1933384604051808373ffffffffffffffffffffffffffffffffffffffff1673ffffffffffffffffffffffffffffffffffffffff1681526020018281526020019250505060405180910390a1662386f26fc10000820234039050600081111561048a573373ffffffffffffffffffffffffffffffffffffffff166108fc829081150290604051600060405180830381858888f19350505050158015610488573d6000803e3d6000fd5b505b505050565b6000600160003373ffffffffffffffffffffffffffffffffffffffff1673ffffffffffffffffffffffffffffffffffffffff16815260200190815260200160002060009054906101000a900460ff161515156104ea57600080fd5b6103e86000803373ffffffffffffffffffffffffffffffffffffffff1673ffffffffffffffffffffffffffffffffffffffff1681526020019081526020016000208190555060018060003373ffffffffffffffffffffffffffffffffffffffff1673ffffffffffffffffffffffffffffffffffffffff16815260200190815260200160002060006101000a81548160ff0219169083151502179055506000803373ffffffffffffffffffffffffffffffffffffffff1673ffffffffffffffffffffffffffffffffffffffff168152602001908152602001600020549050905600a165627a7a72305820f54652f5ebcf14f54c95cdcc923b52d0c8e8105c723d082bbcc338ee5160f9340029",
  "source": "pragma solidity ^0.4.13;\ncontract SimpleBank {\n\n    /* Fill in the keyword. Hint: We want to protect our users balance from modification*/\n    mapping (address => uint) private balances;\n    // One account can enroll only once.  \n    mapping (address => bool) private account;\n\n    /* Let's make sure everyone knows who owns the bank. Use the appropriate keyword for this*/\n    address public owner;\n    uint constant rate = 0.01 ether;\n  \n    // Events - publicize actions to external listeners\n    /* Add 2 arguments for this event, an accountAddress and an amount */\n    event LogDepositMade(address accountAddress, uint amount);\n    \n    modifier returnAmount(uint amount) {\n    //refund them after pay for item (why it is before, _ checks for logic fo func)\n    _;\n    uint total_value = msg.value - amount*rate;\n    if(total_value >0){\n        msg.sender.transfer(total_value);\n    }\n  }\n\n    // Constructor, can receive one or many variables here; only one allowed\n    constructor() public payable{\n        /* Set the owner to the creator of this contract */\n        owner = msg.sender;\n    }\n\n    /// @notice Enroll a customer with the bank, giving them 1000 tokens for free\n    /// @return The balance of the user after enrolling\n    function enroll() public returns (uint){\n      /* Set the sender's balance to 1000, return the sender's balance */\n      require(!account[msg.sender]);\n      balances[msg.sender] = 1000;\n      account[msg.sender] = true;\n      return balances[msg.sender];\n    }\n\n    /// @notice Deposit ether into bank\n    /// @return The balance of the user after the deposit is made\n    function deposit(uint amount) returnAmount(amount) payable public {\n        /* Add the amount to the user's balance, call the event associated with a deposit,\n          then return the balance of the user */\n          require(msg.value >= amount*rate);\n          balances[msg.sender] += amount;\n          emit LogDepositMade(msg.sender, amount);\n    }\n\n    /// @notice Withdraw ether from bank\n    /// @dev This does not return any excess ether sent to it\n    /// @param withdrawAmount amount you want to withdraw\n    /// @return The balance remaining for the user\n    function withdraw(uint withdrawAmount) public returns (uint remainingBal) {\n        /* If the sender's balance is at least the amount they want to withdraw,\n           Subtract the amount from the sender's balance, and try to send that amount of ether\n           to the user attempting to withdraw. IF the send fails, add the amount back to the user's balance\n           return the user's balance.*/\n           if (balances[msg.sender] >= withdrawAmount) {\n            balances[msg.sender] -= withdrawAmount;\n             if (!msg.sender.send(withdrawAmount*rate)) {\n                balances[msg.sender] += withdrawAmount;\n            }\n           }\n\n           return balances[msg.sender];\n    }\n\n    /// @notice Get balance\n    /// @return The balance of the user\n    // A SPECIAL KEYWORD prevents function from editing state variables;\n    // allows function to run locally/off blockchain\n    function balance() view public returns (uint) {\n        /* Get the balance of the sender of this transaction */\n        return balances[msg.sender];\n    }\n\n    // Fallback function - Called if other functions don't match call or\n    // sent ether without data\n    // Typically, called when invalid data is sent\n    // Added so ether sent to this contract is reverted if the contract fails\n    // otherwise, the sender's money is transferred to contract\n    function () payable public {\n        revert();\n    }\n}\n",
  "sourcePath": "/Users/shubham/Projects/Topcoder/ diligence-smart-contract-fun-challenge-solution/simple_bank/contracts/SimpleBank.sol",
  "compiler": {
    "name": "solc",
    "version": "0.4.24+commit.e67f0147.Emscripten.clang"
  },
  "schemaVersion": "2.0.0",
  "updatedAt": "2018-06-07T15:38:02.714Z"
}